{
  "_format": "hh-sol-artifact-1",
  "contractName": "LPToken",
  "sourceName": "contracts/LPToken.sol",
  "abi": [
    {
      "anonymous": false,
      "inputs": [
        {
          "indexed": true,
          "internalType": "address",
          "name": "_from",
          "type": "address"
        },
        {
          "indexed": false,
          "internalType": "string",
          "name": "msg",
          "type": "string"
        }
      ],
      "name": "SenderDetail",
      "type": "event"
    },
    {
      "inputs": [
        {
          "internalType": "int256",
          "name": "amountA",
          "type": "int256"
        },
        {
          "internalType": "int256",
          "name": "amountB",
          "type": "int256"
        },
        {
          "internalType": "address",
          "name": "_toUser",
          "type": "address"
        }
      ],
      "name": "allotLPTokenFor",
      "outputs": [
        {
          "internalType": "int256",
          "name": "responseCode",
          "type": "int256"
        }
      ],
      "stateMutability": "nonpayable",
      "type": "function"
    },
    {
      "inputs": [
        {
          "internalType": "int256",
          "name": "amountA",
          "type": "int256"
        },
        {
          "internalType": "int256",
          "name": "amountB",
          "type": "int256"
        },
        {
          "internalType": "address",
          "name": "_toUser",
          "type": "address"
        }
      ],
      "name": "allotLPTokenForWithDelegate",
      "outputs": [
        {
          "internalType": "int256",
          "name": "responseCode",
          "type": "int256"
        }
      ],
      "stateMutability": "nonpayable",
      "type": "function"
    },
    {
      "inputs": [],
      "name": "getAllLPTokenCount",
      "outputs": [
        {
          "internalType": "int256",
          "name": "",
          "type": "int256"
        }
      ],
      "stateMutability": "view",
      "type": "function"
    },
    {
      "inputs": [
        {
          "internalType": "contract IERC20",
          "name": "_lpToken",
          "type": "address"
        },
        {
          "internalType": "contract IBaseHTS",
          "name": "_tokenService",
          "type": "address"
        }
      ],
      "name": "initializeParams",
      "outputs": [],
      "stateMutability": "nonpayable",
      "type": "function"
    },
    {
      "inputs": [
        {
          "internalType": "address",
          "name": "_user",
          "type": "address"
        }
      ],
      "name": "lpTokenForUser",
      "outputs": [
        {
          "internalType": "int256",
          "name": "",
          "type": "int256"
        }
      ],
      "stateMutability": "view",
      "type": "function"
    },
    {
      "inputs": [
        {
          "internalType": "int256",
          "name": "lpAmount",
          "type": "int256"
        },
        {
          "internalType": "address",
          "name": "_toUser",
          "type": "address"
        }
      ],
      "name": "removeLPTokenFor",
      "outputs": [
        {
          "internalType": "int256",
          "name": "responseCode",
          "type": "int256"
        }
      ],
      "stateMutability": "nonpayable",
      "type": "function"
    },
    {
      "inputs": [
        {
          "internalType": "int256",
          "name": "value",
          "type": "int256"
        }
      ],
      "name": "sqrt",
      "outputs": [
        {
          "internalType": "int256",
          "name": "output",
          "type": "int256"
        }
      ],
      "stateMutability": "pure",
      "type": "function"
    }
  ],
  "bytecode": "0x608060405234801561001057600080fd5b50611b12806100206000396000f3fe608060405234801561001057600080fd5b506004361061007d5760003560e01c80636869958f1161005b5780636869958f146100fe578063a1e79f751461012e578063b4e251791461014c578063ec3ce7851461017c5761007d565b80632a4179d8146100825780632a4d62601461009e578063665df460146100ce575b600080fd5b61009c60048036038101906100979190611042565b6101ac565b005b6100b860048036038101906100b391906110d0565b610231565b6040516100c5919061143c565b60405180910390f35b6100e860048036038101906100e3919061107e565b610436565b6040516100f5919061143c565b60405180910390f35b61011860048036038101906101139190611019565b610493565b604051610125919061143c565b60405180910390f35b610136610547565b604051610143919061143c565b60405180910390f35b61016660048036038101906101619190611148565b6105ee565b604051610173919061143c565b60405180910390f35b61019660048036038101906101919190611148565b6107ca565b6040516101a3919061143c565b60405180910390f35b81600260006101000a81548173ffffffffffffffffffffffffffffffffffffffff021916908373ffffffffffffffffffffffffffffffffffffffff160217905550806000806101000a81548173ffffffffffffffffffffffffffffffffffffffff021916908373ffffffffffffffffffffffffffffffffffffffff1602179055505050565b60008073ffffffffffffffffffffffffffffffffffffffff16600260009054906101000a900473ffffffffffffffffffffffffffffffffffffffff1673ffffffffffffffffffffffffffffffffffffffff16116102c3576040517f08c379a00000000000000000000000000000000000000000000000000000000081526004016102ba90611457565b60405180910390fd5b60008313610306576040517f08c379a00000000000000000000000000000000000000000000000000000000081526004016102fd90611537565b60405180910390fd5b823073ffffffffffffffffffffffffffffffffffffffff16636869958f846040518263ffffffff1660e01b8152600401610340919061138a565b60206040518083038186803b15801561035857600080fd5b505afa15801561036c573d6000803e3d6000fd5b505050506040513d601f19601f8201168201806040525081019061039091906110a7565b136103d0576040517f08c379a00000000000000000000000000000000000000000000000000000000081526004016103c7906114f7565b60405180910390fd5b61041e600260009054906101000a900473ffffffffffffffffffffffffffffffffffffffff168360008054906101000a900473ffffffffffffffffffffffffffffffffffffffff1686610957565b5061042883610a5f565b50601660030b905092915050565b6000806002600184610448919061159e565b6104529190611632565b90508291505b8181121561048d5780915060028182856104729190611632565b61047c919061159e565b6104869190611632565b9050610458565b50919050565b6000600260009054906101000a900473ffffffffffffffffffffffffffffffffffffffff1673ffffffffffffffffffffffffffffffffffffffff166370a08231836040518263ffffffff1660e01b81526004016104f0919061138a565b60206040518083038186803b15801561050857600080fd5b505afa15801561051c573d6000803e3d6000fd5b505050506040513d601f19601f8201168201806040525081019061054091906111c0565b9050919050565b6000600260009054906101000a900473ffffffffffffffffffffffffffffffffffffffff1673ffffffffffffffffffffffffffffffffffffffff166318160ddd6040518163ffffffff1660e01b815260040160206040518083038186803b1580156105b157600080fd5b505afa1580156105c5573d6000803e3d6000fd5b505050506040513d601f19601f820116820180604052508101906105e991906111c0565b905090565b60003373ffffffffffffffffffffffffffffffffffffffff167fe4f4aace5288c74d7e5faabc390ceb3719dce95266b935043173ec59fd8db24660405161063490611517565b60405180910390a2600073ffffffffffffffffffffffffffffffffffffffff16600260009054906101000a900473ffffffffffffffffffffffffffffffffffffffff1673ffffffffffffffffffffffffffffffffffffffff16116106cd576040517f08c379a00000000000000000000000000000000000000000000000000000000081526004016106c490611457565b60405180910390fd5b6000841380156106dd5750600083135b61071c576040517f08c379a0000000000000000000000000000000000000000000000000000000008152600401610713906114d7565b60405180910390fd5b6000610732848561072d919061169c565b610436565b905061076083600260009054906101000a900473ffffffffffffffffffffffffffffffffffffffff16610b82565b5061076a81610cb7565b50506107ba600260009054906101000a900473ffffffffffffffffffffffffffffffffffffffff1660008054906101000a900473ffffffffffffffffffffffffffffffffffffffff168584610957565b50601660030b9150509392505050565b60003373ffffffffffffffffffffffffffffffffffffffff167fe4f4aace5288c74d7e5faabc390ceb3719dce95266b935043173ec59fd8db24660405161081090611557565b60405180910390a2600073ffffffffffffffffffffffffffffffffffffffff16600260009054906101000a900473ffffffffffffffffffffffffffffffffffffffff1673ffffffffffffffffffffffffffffffffffffffff16116108a9576040517f08c379a00000000000000000000000000000000000000000000000000000000081526004016108a090611457565b60405180910390fd5b6000841380156108b95750600083135b6108f8576040517f08c379a00000000000000000000000000000000000000000000000000000000081526004016108ef906114d7565b60405180910390fd5b600061090e8485610909919061169c565b610436565b905061093c83600260009054906101000a900473ffffffffffffffffffffffffffffffffffffffff16610b82565b5061094681610de2565b5050601660030b9150509392505050565b60008060008054906101000a900473ffffffffffffffffffffffffffffffffffffffff1673ffffffffffffffffffffffffffffffffffffffff166370089d56878787876040518563ffffffff1660e01b81526004016109b994939291906113ce565b602060405180830381600087803b1580156109d357600080fd5b505af11580156109e7573d6000803e3d6000fd5b505050506040513d601f19601f82011682018060405250810190610a0b91906110a7565b9050601660030b8114610a53576040517f08c379a0000000000000000000000000000000000000000000000000000000008152600401610a4a90611497565b60405180910390fd5b80915050949350505050565b60008060008054906101000a900473ffffffffffffffffffffffffffffffffffffffff1673ffffffffffffffffffffffffffffffffffffffff1663770c8f51600260009054906101000a900473ffffffffffffffffffffffffffffffffffffffff16856040518363ffffffff1660e01b8152600401610adf929190611413565b6040805180830381600087803b158015610af857600080fd5b505af1158015610b0c573d6000803e3d6000fd5b505050506040513d601f19601f82011682018060405250810190610b30919061110c565b509050601660030b8114610b79576040517f08c379a0000000000000000000000000000000000000000000000000000000008152600401610b70906114b7565b60405180910390fd5b80915050919050565b60008060008060009054906101000a900473ffffffffffffffffffffffffffffffffffffffff1673ffffffffffffffffffffffffffffffffffffffff1663f4a01e5b60e01b8686604051602401610bda9291906113a5565b604051602081830303815290604052907bffffffffffffffffffffffffffffffffffffffffffffffffffffffff19166020820180517bffffffffffffffffffffffffffffffffffffffffffffffffffffffff8381831617835250505050604051610c449190611373565b600060405180830381855af49150503d8060008114610c7f576040519150601f19603f3d011682016040523d82523d6000602084013e610c84565b606091505b509150915081610c95576015610caa565b80806020019051810190610ca99190611197565b5b60030b9250505092915050565b60008060008060008054906101000a900473ffffffffffffffffffffffffffffffffffffffff1673ffffffffffffffffffffffffffffffffffffffff1663c3bd3ff2600260009054906101000a900473ffffffffffffffffffffffffffffffffffffffff16876040518363ffffffff1660e01b8152600401610d3a929190611413565b6040805180830381600087803b158015610d5357600080fd5b505af1158015610d67573d6000803e3d6000fd5b505050506040513d601f19601f82011682018060405250810190610d8b919061110c565b91509150601660030b8214610dd5576040517f08c379a0000000000000000000000000000000000000000000000000000000008152600401610dcc90611477565b60405180910390fd5b8181935093505050915091565b60008060008060008054906101000a900473ffffffffffffffffffffffffffffffffffffffff1673ffffffffffffffffffffffffffffffffffffffff16638104b63a60e01b600260009054906101000a900473ffffffffffffffffffffffffffffffffffffffff1687604051602401610e5c929190611413565b604051602081830303815290604052907bffffffffffffffffffffffffffffffffffffffffffffffffffffffff19166020820180517bffffffffffffffffffffffffffffffffffffffffffffffffffffffff8381831617835250505050604051610ec69190611373565b600060405180830381855af49150503d8060008114610f01576040519150601f19603f3d011682016040523d82523d6000602084013e610f06565b606091505b509150915081610f1c57601560030b6000610f31565b80806020019051810190610f30919061110c565b5b8094508195505050601660030b8414610f7f576040517f08c379a0000000000000000000000000000000000000000000000000000000008152600401610f7690611477565b60405180910390fd5b5050915091565b600081359050610f9581611a52565b92915050565b600081359050610faa81611a69565b92915050565b600081359050610fbf81611a80565b92915050565b600081359050610fd481611a97565b92915050565b600081519050610fe981611a97565b92915050565b600081519050610ffe81611aae565b92915050565b60008151905061101381611ac5565b92915050565b60006020828403121561102b57600080fd5b600061103984828501610f86565b91505092915050565b6000806040838503121561105557600080fd5b600061106385828601610fb0565b925050602061107485828601610f9b565b9150509250929050565b60006020828403121561109057600080fd5b600061109e84828501610fc5565b91505092915050565b6000602082840312156110b957600080fd5b60006110c784828501610fda565b91505092915050565b600080604083850312156110e357600080fd5b60006110f185828601610fc5565b925050602061110285828601610f86565b9150509250929050565b6000806040838503121561111f57600080fd5b600061112d85828601610fda565b925050602061113e85828601610fda565b9150509250929050565b60008060006060848603121561115d57600080fd5b600061116b86828701610fc5565b935050602061117c86828701610fc5565b925050604061118d86828701610f86565b9150509250925092565b6000602082840312156111a957600080fd5b60006111b784828501610fef565b91505092915050565b6000602082840312156111d257600080fd5b60006111e084828501611004565b91505092915050565b6111f2816117b3565b82525050565b600061120382611577565b61120d8185611582565b935061121d81856020860161182a565b80840191505092915050565b611232816117e9565b82525050565b6000611245601f8361158d565b9150611250826118bb565b602082019050919050565b6000611268600b8361158d565b9150611273826118e4565b602082019050919050565b600061128b60168361158d565b91506112968261190d565b602082019050919050565b60006112ae60098361158d565b91506112b982611936565b602082019050919050565b60006112d160248361158d565b91506112dc8261195f565b604082019050919050565b60006112f4601c8361158d565b91506112ff826119ae565b602082019050919050565b6000611317600f8361158d565b9150611322826119d7565b602082019050919050565b600061133a601b8361158d565b915061134582611a00565b602082019050919050565b600061135d601b8361158d565b915061136882611a29565b602082019050919050565b600061137f82846111f8565b915081905092915050565b600060208201905061139f60008301846111e9565b92915050565b60006040820190506113ba60008301856111e9565b6113c760208301846111e9565b9392505050565b60006080820190506113e360008301876111e9565b6113f060208301866111e9565b6113fd60408301856111e9565b61140a6060830184611229565b95945050505050565b600060408201905061142860008301856111e9565b6114356020830184611229565b9392505050565b60006020820190506114516000830184611229565b92915050565b6000602082019050818103600083015261147081611238565b9050919050565b600060208201905081810360008301526114908161125b565b9050919050565b600060208201905081810360008301526114b08161127e565b9050919050565b600060208201905081810360008301526114d0816112a1565b9050919050565b600060208201905081810360008301526114f0816112c4565b9050919050565b60006020820190508181036000830152611510816112e7565b9050919050565b600060208201905081810360008301526115308161130a565b9050919050565b600060208201905081810360008301526115508161132d565b9050919050565b6000602082019050818103600083015261157081611350565b9050919050565b600081519050919050565b600081905092915050565b600082825260208201905092915050565b60006115a9826117e9565b91506115b4836117e9565b9250817f7fffffffffffffffffffffffffffffffffffffffffffffffffffffffffffffff038313600083121516156115ef576115ee61185d565b5b817f80000000000000000000000000000000000000000000000000000000000000000383126000831216156116275761162661185d565b5b828201905092915050565b600061163d826117e9565b9150611648836117e9565b9250826116585761165761188c565b5b600160000383147f8000000000000000000000000000000000000000000000000000000000000000831416156116915761169061185d565b5b828205905092915050565b60006116a7826117e9565b91506116b2836117e9565b9250827f7fffffffffffffffffffffffffffffffffffffffffffffffffffffffffffffff04821160008413600084131616156116f1576116f061185d565b5b817f8000000000000000000000000000000000000000000000000000000000000000058312600084126000841316161561172e5761172d61185d565b5b827f8000000000000000000000000000000000000000000000000000000000000000058212600084136000841216161561176b5761176a61185d565b5b827f7fffffffffffffffffffffffffffffffffffffffffffffffffffffffffffffff05821260008412600084121616156117a8576117a761185d565b5b828202905092915050565b60006117be82611800565b9050919050565b60006117d0826117b3565b9050919050565b60006117e2826117b3565b9050919050565b6000819050919050565b60008160030b9050919050565b600073ffffffffffffffffffffffffffffffffffffffff82169050919050565b6000819050919050565b60005b8381101561184857808201518184015260208101905061182d565b83811115611857576000848401525b50505050565b7f4e487b7100000000000000000000000000000000000000000000000000000000600052601160045260246000fd5b7f4e487b7100000000000000000000000000000000000000000000000000000000600052601260045260246000fd5b7f4c697175696469747920546f6b656e206e6f7420696e697469616c697a656400600082015250565b7f4d696e74204661696c6564000000000000000000000000000000000000000000600082015250565b7f4c5020546f6b656e205472616e73666572204661696c00000000000000000000600082015250565b7f4275726e204661696c0000000000000000000000000000000000000000000000600082015250565b7f506c656173652070726f7669646520706f73697469766520746f6b656e20636f60008201527f756e747300000000000000000000000000000000000000000000000000000000602082015250565b7f5573657220446f6573206e6f742068617665206c7020616d6f756e7400000000600082015250565b7f616c6c6f744c50546f6b656e466f720000000000000000000000000000000000600082015250565b7f506c656173652070726f7669646520746f6b656e20636f756e74730000000000600082015250565b7f616c6c6f744c50546f6b656e466f725769746844656c65676174650000000000600082015250565b611a5b816117b3565b8114611a6657600080fd5b50565b611a72816117c5565b8114611a7d57600080fd5b50565b611a89816117d7565b8114611a9457600080fd5b50565b611aa0816117e9565b8114611aab57600080fd5b50565b611ab7816117f3565b8114611ac257600080fd5b50565b611ace81611820565b8114611ad957600080fd5b5056fea264697066735822122072387baa9869e13b315d485f049d8d0b91093ceb5e03f5f6eafd3b5d4dbc5d4364736f6c63430008040033",
  "linkReferences": {},
  "deployedLinkReferences": {}
}